{
  "_format": "hh-sol-artifact-1",
  "contractName": "Tips",
  "sourceName": "contracts/Tips.sol",
  "abi": [
    {
      "inputs": [],
      "stateMutability": "nonpayable",
      "type": "constructor"
    },
    {
      "inputs": [
        {
          "internalType": "uint256",
          "name": "requested",
          "type": "uint256"
        },
        {
          "internalType": "uint256",
          "name": "available",
          "type": "uint256"
        }
      ],
      "name": "InsufficientBalance",
      "type": "error"
    },
    {
      "anonymous": false,
      "inputs": [
        {
          "indexed": false,
          "internalType": "address",
          "name": "from",
          "type": "address"
        },
        {
          "indexed": false,
          "internalType": "address",
          "name": "to",
          "type": "address"
        },
        {
          "indexed": false,
          "internalType": "uint256",
          "name": "amount",
          "type": "uint256"
        }
      ],
      "name": "Sent",
      "type": "event"
    },
    {
      "inputs": [
        {
          "internalType": "address",
          "name": "account",
          "type": "address"
        }
      ],
      "name": "balanceOf",
      "outputs": [
        {
          "internalType": "uint256",
          "name": "",
          "type": "uint256"
        }
      ],
      "stateMutability": "view",
      "type": "function"
    },
    {
      "inputs": [
        {
          "internalType": "address",
          "name": "",
          "type": "address"
        }
      ],
      "name": "balances",
      "outputs": [
        {
          "internalType": "uint256",
          "name": "",
          "type": "uint256"
        }
      ],
      "stateMutability": "view",
      "type": "function"
    },
    {
      "inputs": [
        {
          "internalType": "address",
          "name": "receiver",
          "type": "address"
        },
        {
          "internalType": "uint256",
          "name": "amount",
          "type": "uint256"
        }
      ],
      "name": "mint",
      "outputs": [],
      "stateMutability": "nonpayable",
      "type": "function"
    },
    {
      "inputs": [],
      "name": "minter",
      "outputs": [
        {
          "internalType": "address",
          "name": "",
          "type": "address"
        }
      ],
      "stateMutability": "view",
      "type": "function"
    },
    {
      "inputs": [
        {
          "internalType": "address",
          "name": "receiver",
          "type": "address"
        },
        {
          "internalType": "uint256",
          "name": "amount",
          "type": "uint256"
        }
      ],
      "name": "send",
      "outputs": [],
      "stateMutability": "nonpayable",
      "type": "function"
    }
  ],
  "bytecode": "0x608060405234801561001057600080fd5b50336000806101000a81548173ffffffffffffffffffffffffffffffffffffffff021916908373ffffffffffffffffffffffffffffffffffffffff1602179055506106a2806100606000396000f3fe608060405234801561001057600080fd5b50600436106100575760003560e01c8063075461721461005c57806327e235e31461007a57806340c10f19146100aa57806370a08231146100c6578063d0679d34146100f6575b600080fd5b610064610112565b604051610071919061043a565b60405180910390f35b610094600480360381019061008f9190610486565b610136565b6040516100a191906104cc565b60405180910390f35b6100c460048036038101906100bf9190610513565b61014e565b005b6100e060048036038101906100db9190610486565b610200565b6040516100ed91906104cc565b60405180910390f35b610110600480360381019061010b9190610513565b610249565b005b60008054906101000a900473ffffffffffffffffffffffffffffffffffffffff1681565b60016020528060005260406000206000915090505481565b60008054906101000a900473ffffffffffffffffffffffffffffffffffffffff1673ffffffffffffffffffffffffffffffffffffffff163373ffffffffffffffffffffffffffffffffffffffff16146101a657600080fd5b80600160008473ffffffffffffffffffffffffffffffffffffffff1673ffffffffffffffffffffffffffffffffffffffff16815260200190815260200160002060008282546101f59190610582565b925050819055505050565b6000600160008373ffffffffffffffffffffffffffffffffffffffff1673ffffffffffffffffffffffffffffffffffffffff168152602001908152602001600020549050919050565b600160003373ffffffffffffffffffffffffffffffffffffffff1673ffffffffffffffffffffffffffffffffffffffff1681526020019081526020016000205481111561030e5780600160003373ffffffffffffffffffffffffffffffffffffffff1673ffffffffffffffffffffffffffffffffffffffff168152602001908152602001600020546040517fcf4791810000000000000000000000000000000000000000000000000000000081526004016103059291906105d8565b60405180910390fd5b80600160003373ffffffffffffffffffffffffffffffffffffffff1673ffffffffffffffffffffffffffffffffffffffff168152602001908152602001600020600082825461035d9190610601565b9250508190555080600160008473ffffffffffffffffffffffffffffffffffffffff1673ffffffffffffffffffffffffffffffffffffffff16815260200190815260200160002060008282546103b39190610582565b925050819055507f3990db2d31862302a685e8086b5755072a6e2b5b780af1ee81ece35ee3cd33453383836040516103ed93929190610635565b60405180910390a15050565b600073ffffffffffffffffffffffffffffffffffffffff82169050919050565b6000610424826103f9565b9050919050565b61043481610419565b82525050565b600060208201905061044f600083018461042b565b92915050565b600080fd5b61046381610419565b811461046e57600080fd5b50565b6000813590506104808161045a565b92915050565b60006020828403121561049c5761049b610455565b5b60006104aa84828501610471565b91505092915050565b6000819050919050565b6104c6816104b3565b82525050565b60006020820190506104e160008301846104bd565b92915050565b6104f0816104b3565b81146104fb57600080fd5b50565b60008135905061050d816104e7565b92915050565b6000806040838503121561052a57610529610455565b5b600061053885828601610471565b9250506020610549858286016104fe565b9150509250929050565b7f4e487b7100000000000000000000000000000000000000000000000000000000600052601160045260246000fd5b600061058d826104b3565b9150610598836104b3565b9250827fffffffffffffffffffffffffffffffffffffffffffffffffffffffffffffffff038211156105cd576105cc610553565b5b828201905092915050565b60006040820190506105ed60008301856104bd565b6105fa60208301846104bd565b9392505050565b600061060c826104b3565b9150610617836104b3565b92508282101561062a57610629610553565b5b828203905092915050565b600060608201905061064a600083018661042b565b610657602083018561042b565b61066460408301846104bd565b94935050505056fea2646970667358221220f587b33887a39f4ce44482630eaeb3570b8f81ecdc7b0e6ed8845785a53c868164736f6c634300080e0033",
  "linkReferences": {},
  "deployedLinkReferences": {}
}